{
  "_format": "hh-sol-artifact-1",
  "contractName": "Marketplace",
  "sourceName": "contracts/Marketplace.sol",
  "abi": [
    {
      "inputs": [
        {
          "internalType": "contract Minter",
          "name": "_minterAddress",
          "type": "address"
        },
        {
          "internalType": "address payable",
          "name": "_owner",
          "type": "address"
        }
      ],
      "stateMutability": "nonpayable",
      "type": "constructor"
    },
    {
      "anonymous": false,
      "inputs": [
        {
          "indexed": false,
          "internalType": "address",
          "name": "_to",
          "type": "address"
        },
        {
          "indexed": false,
          "internalType": "address",
          "name": "_from",
          "type": "address"
        },
        {
          "indexed": false,
          "internalType": "uint256",
          "name": "_amount",
          "type": "uint256"
        }
      ],
      "name": "e_pay",
      "type": "event"
    },
    {
      "anonymous": false,
      "inputs": [
        {
          "indexed": false,
          "internalType": "address",
          "name": "_sender",
          "type": "address"
        },
        {
          "indexed": false,
          "internalType": "address",
          "name": "_recipient",
          "type": "address"
        },
        {
          "indexed": false,
          "internalType": "uint256",
          "name": "_tokenId",
          "type": "uint256"
        }
      ],
      "name": "e_rent",
      "type": "event"
    },
    {
      "stateMutability": "payable",
      "type": "fallback"
    },
    {
      "inputs": [
        {
          "internalType": "address",
          "name": "sender",
          "type": "address"
        },
        {
          "internalType": "address",
          "name": "recipient",
          "type": "address"
        },
        {
          "internalType": "uint256",
          "name": "tokenId",
          "type": "uint256"
        }
      ],
      "name": "buyNFT",
      "outputs": [],
      "stateMutability": "nonpayable",
      "type": "function"
    },
    {
      "inputs": [
        {
          "internalType": "address",
          "name": "_owner",
          "type": "address"
        }
      ],
      "name": "getBalance",
      "outputs": [
        {
          "internalType": "uint256",
          "name": "",
          "type": "uint256"
        }
      ],
      "stateMutability": "view",
      "type": "function"
    },
    {
      "inputs": [
        {
          "internalType": "uint256",
          "name": "_tokenId",
          "type": "uint256"
        }
      ],
      "name": "getTokenURL",
      "outputs": [
        {
          "internalType": "string",
          "name": "",
          "type": "string"
        }
      ],
      "stateMutability": "view",
      "type": "function"
    },
    {
      "inputs": [],
      "name": "getTotalSupply",
      "outputs": [
        {
          "internalType": "uint256",
          "name": "",
          "type": "uint256"
        }
      ],
      "stateMutability": "view",
      "type": "function"
    },
    {
      "inputs": [],
      "name": "minterAddress",
      "outputs": [
        {
          "internalType": "contract Minter",
          "name": "",
          "type": "address"
        }
      ],
      "stateMutability": "view",
      "type": "function"
    },
    {
      "inputs": [],
      "name": "owner",
      "outputs": [
        {
          "internalType": "address payable",
          "name": "",
          "type": "address"
        }
      ],
      "stateMutability": "view",
      "type": "function"
    },
    {
      "inputs": [
        {
          "internalType": "address",
          "name": "_to",
          "type": "address"
        }
      ],
      "name": "pay",
      "outputs": [
        {
          "internalType": "bool",
          "name": "",
          "type": "bool"
        }
      ],
      "stateMutability": "payable",
      "type": "function"
    },
    {
      "inputs": [],
      "name": "totalEarnings",
      "outputs": [
        {
          "internalType": "uint256",
          "name": "",
          "type": "uint256"
        }
      ],
      "stateMutability": "view",
      "type": "function"
    },
    {
      "stateMutability": "payable",
      "type": "receive"
    }
  ],
  "bytecode": "0x60806040523480156200001157600080fd5b506040516200106e3803806200106e833981810160405281019062000037919062000183565b816000806101000a81548173ffffffffffffffffffffffffffffffffffffffff021916908373ffffffffffffffffffffffffffffffffffffffff16021790555080600360006101000a81548173ffffffffffffffffffffffffffffffffffffffff021916908373ffffffffffffffffffffffffffffffffffffffff1602179055505050620001ca565b600080fd5b600073ffffffffffffffffffffffffffffffffffffffff82169050919050565b6000620000f282620000c5565b9050919050565b60006200010682620000e5565b9050919050565b6200011881620000f9565b81146200012457600080fd5b50565b60008151905062000138816200010d565b92915050565b60006200014b82620000c5565b9050919050565b6200015d816200013e565b81146200016957600080fd5b50565b6000815190506200017d8162000152565b92915050565b600080604083850312156200019d576200019c620000c0565b5b6000620001ad8582860162000127565b9250506020620001c0858286016200016c565b9150509250929050565b610e9480620001da6000396000f3fe60806040526004361061007f5760003560e01c80638665e2ad1161004e5780638665e2ad146101375780638da5cb5b14610174578063c4e41b221461019f578063f8b2cb4f146101ca57610086565b80630c11dedd146100885780632df3eba4146100b857806334d722c9146100e35780635d742fd31461010e57610086565b3661008657005b005b6100a2600480360381019061009d9190610817565b610207565b6040516100af919061085f565b60405180910390f35b3480156100c457600080fd5b506100cd6103cf565b6040516100da9190610893565b60405180910390f35b3480156100ef57600080fd5b506100f86103d5565b604051610105919061090d565b60405180910390f35b34801561011a57600080fd5b5061013560048036038101906101309190610954565b6103f9565b005b34801561014357600080fd5b5061015e600480360381019061015991906109a7565b61058d565b60405161016b9190610a64565b60405180910390f35b34801561018057600080fd5b5061018961063c565b6040516101969190610aa7565b60405180910390f35b3480156101ab57600080fd5b506101b4610662565b6040516101c19190610893565b60405180910390f35b3480156101d657600080fd5b506101f160048036038101906101ec9190610817565b6106fd565b6040516101fe9190610893565b60405180910390f35b600080341161024b576040517f08c379a000000000000000000000000000000000000000000000000000000000815260040161024290610b0e565b60405180910390fd5b34600160003373ffffffffffffffffffffffffffffffffffffffff1673ffffffffffffffffffffffffffffffffffffffff168152602001908152602001600020819055508173ffffffffffffffffffffffffffffffffffffffff16600360009054906101000a900473ffffffffffffffffffffffffffffffffffffffff1673ffffffffffffffffffffffffffffffffffffffff161461031f576040517f08c379a000000000000000000000000000000000000000000000000000000000815260040161031690610b7a565b60405180910390fd5b60008273ffffffffffffffffffffffffffffffffffffffff163460405161034590610bcb565b60006040518083038185875af1925050503d8060008114610382576040519150601f19603f3d011682016040523d82523d6000602084013e610387565b606091505b505090507f3cd277107526fda1fae3cea6add259eaf3b1153442ea52e8df0d70dfae8a68118333346040516103be93929190610bef565b60405180910390a180915050919050565b60025481565b60008054906101000a900473ffffffffffffffffffffffffffffffffffffffff1681565b80600160003373ffffffffffffffffffffffffffffffffffffffff1673ffffffffffffffffffffffffffffffffffffffff168152602001908152602001600020540361047a576040517f08c379a000000000000000000000000000000000000000000000000000000000815260040161047190610c72565b60405180910390fd5b60008054906101000a900473ffffffffffffffffffffffffffffffffffffffff1673ffffffffffffffffffffffffffffffffffffffff1663b99ab7ed8484846040518463ffffffff1660e01b81526004016104d793929190610bef565b600060405180830381600087803b1580156104f157600080fd5b505af1158015610505573d6000803e3d6000fd5b5050505080600160003373ffffffffffffffffffffffffffffffffffffffff1673ffffffffffffffffffffffffffffffffffffffff168152602001908152602001600020819055507ff1785dcb4c6d34fc047c6a9554c6a573529363282474c07cf6c25d8b2dcd833d83838360405161058093929190610bef565b60405180910390a1505050565b606060008060009054906101000a900473ffffffffffffffffffffffffffffffffffffffff1673ffffffffffffffffffffffffffffffffffffffff1663154e839e846040518263ffffffff1660e01b81526004016105eb9190610893565b600060405180830381865afa158015610608573d6000803e3d6000fd5b505050506040513d6000823e3d601f19601f820116820180604052508101906106319190610db8565b905080915050919050565b600360009054906101000a900473ffffffffffffffffffffffffffffffffffffffff1681565b60008060008054906101000a900473ffffffffffffffffffffffffffffffffffffffff1673ffffffffffffffffffffffffffffffffffffffff166318160ddd6040518163ffffffff1660e01b8152600401602060405180830381865afa1580156106d0573d6000803e3d6000fd5b505050506040513d601f19601f820116820180604052508101906106f49190610e16565b90508091505090565b60008060008054906101000a900473ffffffffffffffffffffffffffffffffffffffff1673ffffffffffffffffffffffffffffffffffffffff1663f8b2cb4f846040518263ffffffff1660e01b81526004016107599190610e43565b602060405180830381865afa158015610776573d6000803e3d6000fd5b505050506040513d601f19601f8201168201806040525081019061079a9190610e16565b905080915050919050565b6000604051905090565b600080fd5b600080fd5b600073ffffffffffffffffffffffffffffffffffffffff82169050919050565b60006107e4826107b9565b9050919050565b6107f4816107d9565b81146107ff57600080fd5b50565b600081359050610811816107eb565b92915050565b60006020828403121561082d5761082c6107af565b5b600061083b84828501610802565b91505092915050565b60008115159050919050565b61085981610844565b82525050565b60006020820190506108746000830184610850565b92915050565b6000819050919050565b61088d8161087a565b82525050565b60006020820190506108a86000830184610884565b92915050565b6000819050919050565b60006108d36108ce6108c9846107b9565b6108ae565b6107b9565b9050919050565b60006108e5826108b8565b9050919050565b60006108f7826108da565b9050919050565b610907816108ec565b82525050565b600060208201905061092260008301846108fe565b92915050565b6109318161087a565b811461093c57600080fd5b50565b60008135905061094e81610928565b92915050565b60008060006060848603121561096d5761096c6107af565b5b600061097b86828701610802565b935050602061098c86828701610802565b925050604061099d8682870161093f565b9150509250925092565b6000602082840312156109bd576109bc6107af565b5b60006109cb8482850161093f565b91505092915050565b600081519050919050565b600082825260208201905092915050565b60005b83811015610a0e5780820151818401526020810190506109f3565b60008484015250505050565b6000601f19601f8301169050919050565b6000610a36826109d4565b610a4081856109df565b9350610a508185602086016109f0565b610a5981610a1a565b840191505092915050565b60006020820190508181036000830152610a7e8184610a2b565b905092915050565b6000610a91826107b9565b9050919050565b610aa181610a86565b82525050565b6000602082019050610abc6000830184610a98565b92915050565b7f506c656173652073656e6420612076616c696420616d6f756e74000000000000600082015250565b6000610af8601a836109df565b9150610b0382610ac2565b602082019050919050565b60006020820190508181036000830152610b2781610aeb565b9050919050565b7f556e617574686f72697a65640000000000000000000000000000000000000000600082015250565b6000610b64600c836109df565b9150610b6f82610b2e565b602082019050919050565b60006020820190508181036000830152610b9381610b57565b9050919050565b600081905092915050565b50565b6000610bb5600083610b9a565b9150610bc082610ba5565b600082019050919050565b6000610bd682610ba8565b9150819050919050565b610be9816107d9565b82525050565b6000606082019050610c046000830186610be0565b610c116020830185610be0565b610c1e6040830184610884565b949350505050565b7f416c726561647920626f756768742074686973204e4654000000000000000000600082015250565b6000610c5c6017836109df565b9150610c6782610c26565b602082019050919050565b60006020820190508181036000830152610c8b81610c4f565b9050919050565b600080fd5b600080fd5b7f4e487b7100000000000000000000000000000000000000000000000000000000600052604160045260246000fd5b610cd482610a1a565b810181811067ffffffffffffffff82111715610cf357610cf2610c9c565b5b80604052505050565b6000610d066107a5565b9050610d128282610ccb565b919050565b600067ffffffffffffffff821115610d3257610d31610c9c565b5b610d3b82610a1a565b9050602081019050919050565b6000610d5b610d5684610d17565b610cfc565b905082815260208101848484011115610d7757610d76610c97565b5b610d828482856109f0565b509392505050565b600082601f830112610d9f57610d9e610c92565b5b8151610daf848260208601610d48565b91505092915050565b600060208284031215610dce57610dcd6107af565b5b600082015167ffffffffffffffff811115610dec57610deb6107b4565b5b610df884828501610d8a565b91505092915050565b600081519050610e1081610928565b92915050565b600060208284031215610e2c57610e2b6107af565b5b6000610e3a84828501610e01565b91505092915050565b6000602082019050610e586000830184610be0565b9291505056fea26469706673582212202b14a340b6d31510d6e29d014f77cbdf00d1d77815f475acf7af87e6f03d674564736f6c63430008110033",
  "linkReferences": {},
  "deployedLinkReferences": {}
}